{
  "contractName": "BallotBox",
  "abi": [
    {
      "constant": false,
      "inputs": [],
      "name": "close",
      "outputs": [
        {
          "name": "",
          "type": "bool"
        }
      ],
      "payable": false,
      "stateMutability": "nonpayable",
      "type": "function"
    },
    {
      "constant": true,
      "inputs": [],
      "name": "isOpen",
      "outputs": [
        {
          "name": "",
          "type": "bool"
        }
      ],
      "payable": false,
      "stateMutability": "view",
      "type": "function"
    },
    {
      "constant": true,
      "inputs": [
        {
          "name": "",
          "type": "uint16"
        }
      ],
      "name": "votes",
      "outputs": [
        {
          "name": "",
          "type": "uint256"
        }
      ],
      "payable": false,
      "stateMutability": "view",
      "type": "function"
    },
    {
      "constant": true,
      "inputs": [],
      "name": "owner",
      "outputs": [
        {
          "name": "",
          "type": "address"
        }
      ],
      "payable": false,
      "stateMutability": "view",
      "type": "function"
    },
    {
      "constant": true,
      "inputs": [],
      "name": "id",
      "outputs": [
        {
          "name": "",
          "type": "uint16"
        }
      ],
      "payable": false,
      "stateMutability": "view",
      "type": "function"
    },
    {
      "constant": false,
      "inputs": [
        {
          "name": "candidate",
          "type": "uint16"
        }
      ],
      "name": "vote",
      "outputs": [],
      "payable": false,
      "stateMutability": "nonpayable",
      "type": "function"
    },
    {
      "inputs": [
        {
          "name": "_id",
          "type": "uint16"
        },
        {
          "name": "_candidates",
          "type": "uint16"
        },
        {
          "name": "_mainbox",
          "type": "address"
        }
      ],
      "payable": false,
      "stateMutability": "nonpayable",
      "type": "constructor"
    },
    {
      "payable": false,
      "stateMutability": "nonpayable",
      "type": "fallback"
    },
    {
      "anonymous": false,
      "inputs": [
        {
          "indexed": true,
          "name": "sender",
          "type": "address"
        },
        {
          "indexed": false,
          "name": "candidate",
          "type": "uint16"
        }
      ],
      "name": "Vote",
      "type": "event"
    }
  ],
  "bytecode": "0x6060604052341561000f57600080fd5b6040516060806105d38339810160405280805190602001909190805190602001909190805190602001909190505082600160146101000a81548161ffff021916908361ffff16021790555081600160176101000a81548161ffff021916908361ffff16021790555060018060166101000a81548160ff02191690831515021790555080600260006101000a81548173ffffffffffffffffffffffffffffffffffffffff021916908373ffffffffffffffffffffffffffffffffffffffff1602179055505050506104ef806100e46000396000f300606060405260043610610078576000357c0100000000000000000000000000000000000000000000000000000000900463ffffffff16806343d726d61461008857806347535d7b146100b557806348423fd7146100e25780638da5cb5b1461011d578063af640d0f14610172578063ddb6e116146101a3575b341561008357600080fd5b600080fd5b341561009357600080fd5b61009b6101ca565b604051808215151515815260200191505060405180910390f35b34156100c057600080fd5b6100c8610257565b604051808215151515815260200191505060405180910390f35b34156100ed57600080fd5b610107600480803561ffff1690602001909190505061026a565b6040518082815260200191505060405180910390f35b341561012857600080fd5b610130610282565b604051808273ffffffffffffffffffffffffffffffffffffffff1673ffffffffffffffffffffffffffffffffffffffff16815260200191505060405180910390f35b341561017d57600080fd5b6101856102a8565b604051808261ffff1661ffff16815260200191505060405180910390f35b34156101ae57600080fd5b6101c8600480803561ffff169060200190919050506102bc565b005b6000600160009054906101000a900473ffffffffffffffffffffffffffffffffffffffff1673ffffffffffffffffffffffffffffffffffffffff163373ffffffffffffffffffffffffffffffffffffffff16141561025457600160169054906101000a900460ff1615610253576000600160166101000a81548160ff0219169083151502179055505b5b90565b600160169054906101000a900460ff1681565b60006020528060005260406000206000915090505481565b600160009054906101000a900473ffffffffffffffffffffffffffffffffffffffff1681565b600160149054906101000a900461ffff1681565b600260009054906101000a900473ffffffffffffffffffffffffffffffffffffffff1673ffffffffffffffffffffffffffffffffffffffff16638f4813d36000604051602001526040518163ffffffff167c0100000000000000000000000000000000000000000000000000000000028152600401602060405180830381600087803b151561034a57600080fd5b6102c65a03f1151561035b57600080fd5b5050506040518051905015156104c057600160169054906101000a900460ff16156104bf57600160179054906101000a900461ffff1661ffff168161ffff161015156103a657600080fd5b3373ffffffffffffffffffffffffffffffffffffffff167f7c1628fca1b7c5dfc2cbf9e36a66a2f3695736151cb570c179644e6b21444f6c82604051808261ffff1661ffff16815260200191505060405180910390a2600260009054906101000a900473ffffffffffffffffffffffffffffffffffffffff1673ffffffffffffffffffffffffffffffffffffffff16639a9758266040518163ffffffff167c0100000000000000000000000000000000000000000000000000000000028152600401600060405180830381600087803b151561048157600080fd5b6102c65a03f1151561049257600080fd5b50505060016000808361ffff1661ffff168152602001908152602001600020600082825401925050819055505b5b505600a165627a7a723058208521ed217b82e7ec712e1bc4571c58af35e054bad17aa019cddaad9033bc7d230029",
  "source": "pragma solidity ^0.4.0;\n\ncontract BallotBox {\n    mapping( uint16 => uint ) public votes;\n    address public owner;\n    uint16 public id;\n    bool public isOpen;\n    uint16 candidates;\n    MainBox private mainbox;\n\n    event Vote(address indexed sender, uint16 candidate);\n\n    modifier sudo {\n        if (msg.sender == owner) _;\n    }\n\n    modifier checkStatus {\n        if( isOpen ) _;\n    }\n\n    modifier uniqueVote {\n        if( !mainbox.alreadyVote() ) _;\n    }\n\n    // fallback function (rejects ether payments)\n    function() public {\n        revert();\n    }\n\n    function BallotBox(uint16 _id, uint16 _candidates, MainBox _mainbox ) public {\n        id = _id;\n        candidates = _candidates;\n        isOpen = true;\n        mainbox = _mainbox;\n    }\n\n    function close() external sudo checkStatus returns (bool) {\n        isOpen = false;\n    }\n\n    function vote( uint16 candidate ) uniqueVote checkStatus public {\n        require(candidate < candidates);\n        Vote( msg.sender, candidate );\n        mainbox.markMyVote();\n        votes[ candidate ] += 1;\n    }\n}\n\ncontract MainBox {\n    mapping( uint16 => uint ) public totalVotes;\n    mapping( uint16 => BallotBox ) public ballotboxes;\n    mapping( address => uint ) private voters;\n\n    address public owner;\n    uint16 public _candidates;\n    uint public _deadline;\n    uint16 public _boxes;\n\n    modifier sudo {\n        if (msg.sender == owner) _;\n    }\n\n    // fallback function (rejects ether payments)\n    function() public{\n        revert();\n    }\n\n    function MainBox(uint16 candidates, uint16 boxes, uint deadline) public {\n        owner = msg.sender;\n        _deadline = deadline;\n        _candidates = candidates;\n        _boxes = boxes;\n        for( uint16 i = 0; i < boxes; i++ ){\n            ballotboxes[i] = new BallotBox( i, candidates, this );\n        }\n    }\n\n    function alreadyVote() external returns (bool){\n        return voters[msg.sender] == 1;\n    }\n\n    function markMyVote() external {\n        voters[msg.sender] = 1;\n    }\n\n    function makeCount() public sudo returns (bool) {\n        assert(block.timestamp >= _deadline);\n        for( uint16 i = 0; i < _boxes; i++ ){\n            for( uint16 c = 0; c < _candidates; c++ ){\n                BallotBox box = ballotboxes[i];\n                totalVotes[c] += box.votes(c);\n            }\n            ballotboxes[i].close();\n        }\n        return true;\n    }\n\n}",
  "sourcePath": "/Users/sergio/Documents/Proyectos/Workshop-Blockchain/Practice1/truffle/contracts/Elections.sol",
  "compiler": {
    "name": "solc",
    "version": "0.4.18+commit.9cf6e910.Emscripten.clang"
  },
  "schemaVersion": "1.0.1",
  "updatedAt": "2017-11-16T22:18:57.782Z"
}