{
  "contractName": "Board",
  "abi": [
    {
      "constant": false,
      "inputs": [
        {
          "name": "id",
          "type": "uint256"
        },
        {
          "name": "message",
          "type": "string"
        }
      ],
      "name": "edit",
      "outputs": [],
      "payable": false,
      "stateMutability": "nonpayable",
      "type": "function"
    },
    {
      "constant": false,
      "inputs": [
        {
          "name": "id",
          "type": "uint256"
        }
      ],
      "name": "remove",
      "outputs": [],
      "payable": false,
      "stateMutability": "nonpayable",
      "type": "function"
    },
    {
      "constant": false,
      "inputs": [
        {
          "name": "message",
          "type": "string"
        }
      ],
      "name": "post",
      "outputs": [
        {
          "name": "",
          "type": "uint256"
        }
      ],
      "payable": false,
      "stateMutability": "nonpayable",
      "type": "function"
    },
    {
      "constant": true,
      "inputs": [
        {
          "name": "",
          "type": "address"
        },
        {
          "name": "",
          "type": "uint256"
        }
      ],
      "name": "messages",
      "outputs": [
        {
          "name": "message",
          "type": "string"
        },
        {
          "name": "status",
          "type": "uint8"
        }
      ],
      "payable": false,
      "stateMutability": "view",
      "type": "function"
    },
    {
      "constant": true,
      "inputs": [],
      "name": "admin",
      "outputs": [
        {
          "name": "",
          "type": "address"
        }
      ],
      "payable": false,
      "stateMutability": "view",
      "type": "function"
    },
    {
      "inputs": [],
      "payable": false,
      "stateMutability": "nonpayable",
      "type": "constructor"
    },
    {
      "payable": false,
      "stateMutability": "nonpayable",
      "type": "fallback"
    },
    {
      "anonymous": false,
      "inputs": [
        {
          "indexed": true,
          "name": "author",
          "type": "address"
        },
        {
          "indexed": true,
          "name": "action",
          "type": "uint8"
        },
        {
          "indexed": false,
          "name": "message",
          "type": "string"
        }
      ],
      "name": "Log",
      "type": "event"
    }
  ],
  "bytecode": "0x6060604052341561000f57600080fd5b336000806101000a81548173ffffffffffffffffffffffffffffffffffffffff021916908373ffffffffffffffffffffffffffffffffffffffff1602179055506108e48061005e6000396000f30060606040526004361061006d576000357c0100000000000000000000000000000000000000000000000000000000900463ffffffff16806336423f541461007d5780634cc82215146100e35780638ee93cf314610106578063c45d9bea14610177578063f851a44014610264575b341561007857600080fd5b600080fd5b341561008857600080fd5b6100e1600480803590602001909190803590602001908201803590602001908080601f016020809104026020016040519081016040528093929190818152602001838380828437820191505050505050919050506102b9565b005b34156100ee57600080fd5b6101046004808035906020019091905050610485565b005b341561011157600080fd5b610161600480803590602001908201803590602001908080601f01602080910402602001604051908101604052809392919081815260200183838082843782019150505050505091905050610559565b6040518082815260200191505060405180910390f35b341561018257600080fd5b6101b7600480803573ffffffffffffffffffffffffffffffffffffffff169060200190919080359060200190919050506106e5565b60405180806020018360018111156101cb57fe5b60ff1681526020018281038252848181546001816001161561010002031660029004815260200191508054600181600116156101000203166002900480156102545780601f1061022957610100808354040283529160200191610254565b820191906000526020600020905b81548152906001019060200180831161023757829003601f168201915b5050935050505060405180910390f35b341561026f57600080fd5b610277610731565b604051808273ffffffffffffffffffffffffffffffffffffffff1673ffffffffffffffffffffffffffffffffffffffff16815260200191505060405180910390f35b8160018060003373ffffffffffffffffffffffffffffffffffffffff1673ffffffffffffffffffffffffffffffffffffffff16815260200190815260200160002080549050031015151561030957fe5b60013373ffffffffffffffffffffffffffffffffffffffff167f82ee9901609e3270f5af4d04385b9bfc687adf9a4d486b4e79d30bc5a3393513836040518080602001828103825283818151815260200191508051906020019080838360005b83811015610384578082015181840152602081019050610369565b50505050905090810190601f1680156103b15780820380516001836020036101000a031916815260200191505b509250505060405180910390a360408051908101604052808281526020016001808111156103db57fe5b815250600160003373ffffffffffffffffffffffffffffffffffffffff1673ffffffffffffffffffffffffffffffffffffffff1681526020019081526020016000208381548110151561042a57fe5b90600052602060002090600202016000820151816000019080519060200190610454929190610756565b5060208201518160010160006101000a81548160ff0219169083600181111561047957fe5b02179055509050505050565b8060018060003373ffffffffffffffffffffffffffffffffffffffff1673ffffffffffffffffffffffffffffffffffffffff1681526020019081526020016000208054905003101515156104d557fe5b600160003373ffffffffffffffffffffffffffffffffffffffff1673ffffffffffffffffffffffffffffffffffffffff1681526020019081526020016000208181548110151561052157fe5b90600052602060002090600202016000808201600061054091906107d6565b6001820160006101000a81549060ff0219169055505050565b6000803373ffffffffffffffffffffffffffffffffffffffff167f82ee9901609e3270f5af4d04385b9bfc687adf9a4d486b4e79d30bc5a3393513846040518080602001828103825283818151815260200191508051906020019080838360005b838110156105d55780820151818401526020810190506105ba565b50505050905090810190601f1680156106025780820380516001836020036101000a031916815260200191505b509250505060405180910390a3600160003373ffffffffffffffffffffffffffffffffffffffff1673ffffffffffffffffffffffffffffffffffffffff1681526020019081526020016000208054806001018281610660919061081e565b9160005260206000209060020201600060408051908101604052808681526020016000600181111561068e57fe5b815250909190915060008201518160000190805190602001906106b2929190610756565b5060208201518160010160006101000a81548160ff021916908360018111156106d757fe5b021790555050509050919050565b60016020528160005260406000208181548110151561070057fe5b90600052602060002090600202016000915091505080600001908060010160009054906101000a900460ff16905082565b6000809054906101000a900473ffffffffffffffffffffffffffffffffffffffff1681565b828054600181600116156101000203166002900490600052602060002090601f016020900481019282601f1061079757805160ff19168380011785556107c5565b828001600101855582156107c5579182015b828111156107c45782518255916020019190600101906107a9565b5b5090506107d29190610850565b5090565b50805460018160011615610100020316600290046000825580601f106107fc575061081b565b601f01602090049060005260206000209081019061081a9190610850565b5b50565b81548183558181151161084b5760020281600202836000526020600020918201910161084a9190610875565b5b505050565b61087291905b8082111561086e576000816000905550600101610856565b5090565b90565b6108b591905b808211156108b1576000808201600061089491906107d6565b6001820160006101000a81549060ff02191690555060020161087b565b5090565b905600a165627a7a72305820840e7a42f86cdd74213601d5fdf34962bc9fc055a45c45e7cebf3ea0ab3bf5250029",
  "source": "pragma solidity ^0.4.0;\n\n\ncontract Board {\n    enum Status {\n        NEW, MODIFIED\n    }\n\n    struct Message {\n        string message;\n        Status status;\n    }\n\n    address public admin;\n    event Log(address indexed author, uint8 indexed action, string message);\n    mapping (address => Message[]) public messages;\n\n    modifier sudo {\n        if (msg.sender == admin) _;\n    }\n\n    // fallback function (rejects ether payments)\n    function() public{\n        revert();\n    }\n\n    function Board() public {\n        admin = msg.sender;\n    }\n\n    function post(string message) public returns (uint) {\n        Log( msg.sender, 0, message );\n        return messages[msg.sender].push(Message({message: message, status : Status.NEW}));\n    }\n\n    function edit(uint id, string message) public {\n        assert(messages[msg.sender].length - 1 >= id  );\n        Log( msg.sender, 1, message );\n        messages[msg.sender][id] = Message({message: message, status : Status.MODIFIED});\n    }\n\n    function remove(uint id) public {\n        assert(messages[msg.sender].length - 1 >= id  );\n        delete messages[msg.sender][id];\n    }\n}",
  "sourcePath": "/Users/sergio/Documents/Proyectos/Workshop-Blockchain/Practice1/truffle/contracts/Board.sol",
  "compiler": {
    "name": "solc",
    "version": "0.4.18+commit.9cf6e910.Emscripten.clang"
  },
  "schemaVersion": "1.0.1",
  "updatedAt": "2017-11-16T22:18:57.772Z"
}