{
  "contractName": "Calculator",
  "abi": [
    {
      "constant": false,
      "inputs": [
        {
          "name": "a",
          "type": "uint256"
        }
      ],
      "name": "fact",
      "outputs": [
        {
          "name": "",
          "type": "uint256"
        }
      ],
      "payable": false,
      "stateMutability": "nonpayable",
      "type": "function"
    },
    {
      "constant": false,
      "inputs": [
        {
          "name": "a",
          "type": "uint256"
        },
        {
          "name": "b",
          "type": "uint256"
        }
      ],
      "name": "pow",
      "outputs": [
        {
          "name": "",
          "type": "uint256"
        }
      ],
      "payable": false,
      "stateMutability": "nonpayable",
      "type": "function"
    },
    {
      "constant": false,
      "inputs": [
        {
          "name": "a",
          "type": "int256"
        },
        {
          "name": "b",
          "type": "int256"
        }
      ],
      "name": "div",
      "outputs": [
        {
          "name": "",
          "type": "int256"
        }
      ],
      "payable": false,
      "stateMutability": "nonpayable",
      "type": "function"
    },
    {
      "constant": false,
      "inputs": [
        {
          "name": "a",
          "type": "int256"
        }
      ],
      "name": "isNegative",
      "outputs": [
        {
          "name": "",
          "type": "bool"
        }
      ],
      "payable": false,
      "stateMutability": "nonpayable",
      "type": "function"
    },
    {
      "constant": true,
      "inputs": [],
      "name": "owner",
      "outputs": [
        {
          "name": "",
          "type": "address"
        }
      ],
      "payable": false,
      "stateMutability": "view",
      "type": "function"
    },
    {
      "constant": false,
      "inputs": [
        {
          "name": "a",
          "type": "int256"
        },
        {
          "name": "b",
          "type": "int256"
        }
      ],
      "name": "sum",
      "outputs": [
        {
          "name": "",
          "type": "int256"
        }
      ],
      "payable": false,
      "stateMutability": "nonpayable",
      "type": "function"
    },
    {
      "constant": false,
      "inputs": [
        {
          "name": "a",
          "type": "int256"
        },
        {
          "name": "b",
          "type": "int256"
        }
      ],
      "name": "mult",
      "outputs": [
        {
          "name": "",
          "type": "int256"
        }
      ],
      "payable": false,
      "stateMutability": "nonpayable",
      "type": "function"
    },
    {
      "inputs": [],
      "payable": false,
      "stateMutability": "nonpayable",
      "type": "constructor"
    },
    {
      "anonymous": false,
      "inputs": [
        {
          "indexed": false,
          "name": "a",
          "type": "int256"
        },
        {
          "indexed": false,
          "name": "b",
          "type": "int256"
        },
        {
          "indexed": false,
          "name": "c",
          "type": "int256"
        }
      ],
      "name": "Sum",
      "type": "event"
    },
    {
      "anonymous": false,
      "inputs": [
        {
          "indexed": false,
          "name": "a",
          "type": "int256"
        },
        {
          "indexed": false,
          "name": "b",
          "type": "int256"
        },
        {
          "indexed": false,
          "name": "c",
          "type": "int256"
        }
      ],
      "name": "Mult",
      "type": "event"
    },
    {
      "anonymous": false,
      "inputs": [
        {
          "indexed": false,
          "name": "a",
          "type": "int256"
        },
        {
          "indexed": false,
          "name": "b",
          "type": "int256"
        },
        {
          "indexed": false,
          "name": "c",
          "type": "int256"
        }
      ],
      "name": "Div",
      "type": "event"
    },
    {
      "anonymous": false,
      "inputs": [
        {
          "indexed": false,
          "name": "a",
          "type": "int256"
        },
        {
          "indexed": false,
          "name": "b",
          "type": "uint256"
        },
        {
          "indexed": false,
          "name": "c",
          "type": "uint256"
        }
      ],
      "name": "Pow",
      "type": "event"
    },
    {
      "anonymous": false,
      "inputs": [
        {
          "indexed": false,
          "name": "a",
          "type": "uint256"
        },
        {
          "indexed": false,
          "name": "c",
          "type": "uint256"
        }
      ],
      "name": "Factorial",
      "type": "event"
    }
  ],
  "bytecode": "0x6060604052341561000f57600080fd5b336000806101000a81548173ffffffffffffffffffffffffffffffffffffffff021916908373ffffffffffffffffffffffffffffffffffffffff1602179055506106af8061005e6000396000f300606060405260043610610083576000357c0100000000000000000000000000000000000000000000000000000000900463ffffffff1680630b95d228146100885780632e4c697f146100bf57806343509138146100ff57806365c0f9671461013f5780638da5cb5b1461017a5780639967062d146101cf578063c48c23a01461020f575b600080fd5b341561009357600080fd5b6100a9600480803590602001909190505061024f565b6040518082815260200191505060405180910390f35b34156100ca57600080fd5b6100e96004808035906020019091908035906020019091905050610317565b6040518082815260200191505060405180910390f35b341561010a57600080fd5b61012960048080359060200190919080359060200190919050506103c7565b6040518082815260200191505060405180910390f35b341561014a57600080fd5b610160600480803590602001909190505061048f565b604051808215151515815260200191505060405180910390f35b341561018557600080fd5b61018d610500565b604051808273ffffffffffffffffffffffffffffffffffffffff1673ffffffffffffffffffffffffffffffffffffffff16815260200191505060405180910390f35b34156101da57600080fd5b6101f96004808035906020019091908035906020019091905050610525565b6040518082815260200191505060405180910390f35b341561021a57600080fd5b61023960048080359060200190919080359060200190919050506105d4565b6040518082815260200191505060405180910390f35b60008060008060009054906101000a900473ffffffffffffffffffffffffffffffffffffffff1673ffffffffffffffffffffffffffffffffffffffff163373ffffffffffffffffffffffffffffffffffffffff1614156103105760019150600290505b83811115156102cd57808202915080806001019150506102b2565b7fcd8fd8baeadafabebd530389d34f6fe188082ae5185569dbbde7ce6ec5da60a08483604051808381526020018281526020019250505060405180910390a18192505b5050919050565b6000806000809054906101000a900473ffffffffffffffffffffffffffffffffffffffff1673ffffffffffffffffffffffffffffffffffffffff163373ffffffffffffffffffffffffffffffffffffffff1614156103c05782840a90507f411181b81f3f2fe2cfcede0c312e1eabd4b5aff1bd8922c637c1e61805d4f4216002848360405180848152602001838152602001828152602001935050505060405180910390a18091505b5092915050565b6000806000809054906101000a900473ffffffffffffffffffffffffffffffffffffffff1673ffffffffffffffffffffffffffffffffffffffff163373ffffffffffffffffffffffffffffffffffffffff161415610488576000831415151561042f57600080fd5b828481151561043a57fe5b0590507f1f8dc52e03e77fc5309f20e607b49e4bfcee011e98618c6c53ed5112e4d332cb84848360405180848152602001838152602001828152602001935050505060405180910390a18091505b5092915050565b60008060009054906101000a900473ffffffffffffffffffffffffffffffffffffffff1673ffffffffffffffffffffffffffffffffffffffff163373ffffffffffffffffffffffffffffffffffffffff1614156104fb57600082136104f55760006104f8565b60015b90505b919050565b6000809054906101000a900473ffffffffffffffffffffffffffffffffffffffff1681565b6000806000809054906101000a900473ffffffffffffffffffffffffffffffffffffffff1673ffffffffffffffffffffffffffffffffffffffff163373ffffffffffffffffffffffffffffffffffffffff1614156105cd5782840190507f2ef19b05307f35e80cc126aa31b8de2e89d8b7d8029e5a38b9db90532cdc4c1984848360405180848152602001838152602001828152602001935050505060405180910390a18091505b5092915050565b6000806000809054906101000a900473ffffffffffffffffffffffffffffffffffffffff1673ffffffffffffffffffffffffffffffffffffffff163373ffffffffffffffffffffffffffffffffffffffff16141561067c5782840290507f016f883a42317f0491905cbd00129df0f916a439ba2db35027b85d60dbfdee4284848360405180848152602001838152602001828152602001935050505060405180910390a18091505b50929150505600a165627a7a72305820c7086af032a34e1d29bc753f37514610859c07a93f9f4c1c1b8b2972bb97c66f0029",
  "source": "pragma solidity ^0.4.0;\n\n\ncontract Calculator {\n    address public owner;\n\n    event Sum(int a, int b, int c);\n    event Mult(int a, int b, int c);\n    event Div(int a, int b, int c);\n    event Pow(int a, uint b, uint c);\n    event Factorial(uint a, uint c);\n\n    modifier sudo {if (msg.sender == owner) _;}\n\n    function Calculator() public {\n        owner = msg.sender;\n    }\n\n    function sum(int a, int b) public sudo returns (int)  {\n        int c = a + b;\n        Sum(a, b, c);\n        return c;\n    }\n\n    function mult(int a, int b) public sudo returns (int) {\n        int c = a * b;\n        Mult(a, b, c);\n        return c;\n    }\n\n    function div(int a, int b) public sudo returns (int) {\n        require(b != 0);\n        int c = a / b;\n        Div(a, b, c);\n        return c;\n    }\n\n    function pow(uint a, uint b) public sudo returns (uint) {\n        uint c = a ** b;\n        Pow(2, b, c);\n        return c;\n    }\n\n    function fact(uint a) public sudo returns (uint) {\n        uint c = 1;\n        for( uint i = 2; i <= a; i++ ){\n            c *= i;\n        }\n        Factorial(a, c);\n        return c;\n    }\n\n    function isNegative(int a) public sudo returns (bool) {\n        return a > 0 ? true : false;\n    }\n}",
  "sourcePath": "/Users/sergio/Documents/Proyectos/Workshop-Blockchain/Practice1/truffle/contracts/Calculator.sol",
  "compiler": {
    "name": "solc",
    "version": "0.4.18+commit.9cf6e910.Emscripten.clang"
  },
  "schemaVersion": "1.0.1",
  "updatedAt": "2017-11-16T22:18:57.778Z"
}