{
  "contractName": "Escrow",
  "abi": [
    {
      "constant": true,
      "inputs": [],
      "name": "deadline",
      "outputs": [
        {
          "name": "",
          "type": "uint256"
        }
      ],
      "payable": false,
      "stateMutability": "view",
      "type": "function"
    },
    {
      "constant": false,
      "inputs": [
        {
          "name": "amount",
          "type": "uint256"
        }
      ],
      "name": "withdraw",
      "outputs": [],
      "payable": false,
      "stateMutability": "nonpayable",
      "type": "function"
    },
    {
      "constant": false,
      "inputs": [
        {
          "name": "amount",
          "type": "uint256"
        }
      ],
      "name": "release",
      "outputs": [],
      "payable": false,
      "stateMutability": "nonpayable",
      "type": "function"
    },
    {
      "constant": true,
      "inputs": [],
      "name": "minimum",
      "outputs": [
        {
          "name": "",
          "type": "uint256"
        }
      ],
      "payable": false,
      "stateMutability": "view",
      "type": "function"
    },
    {
      "constant": true,
      "inputs": [],
      "name": "collector",
      "outputs": [
        {
          "name": "",
          "type": "address"
        }
      ],
      "payable": false,
      "stateMutability": "view",
      "type": "function"
    },
    {
      "constant": true,
      "inputs": [],
      "name": "released",
      "outputs": [
        {
          "name": "",
          "type": "uint256"
        }
      ],
      "payable": false,
      "stateMutability": "view",
      "type": "function"
    },
    {
      "constant": true,
      "inputs": [
        {
          "name": "",
          "type": "address"
        }
      ],
      "name": "deposits",
      "outputs": [
        {
          "name": "",
          "type": "uint256"
        }
      ],
      "payable": false,
      "stateMutability": "view",
      "type": "function"
    },
    {
      "inputs": [
        {
          "name": "min",
          "type": "uint256"
        },
        {
          "name": "date",
          "type": "uint256"
        }
      ],
      "payable": false,
      "stateMutability": "nonpayable",
      "type": "constructor"
    },
    {
      "payable": true,
      "stateMutability": "payable",
      "type": "fallback"
    },
    {
      "anonymous": false,
      "inputs": [
        {
          "indexed": true,
          "name": "sender",
          "type": "address"
        },
        {
          "indexed": false,
          "name": "amount",
          "type": "uint256"
        }
      ],
      "name": "Deposit",
      "type": "event"
    },
    {
      "anonymous": false,
      "inputs": [
        {
          "indexed": true,
          "name": "sender",
          "type": "address"
        },
        {
          "indexed": false,
          "name": "amount",
          "type": "uint256"
        }
      ],
      "name": "Withdrawal",
      "type": "event"
    },
    {
      "anonymous": false,
      "inputs": [
        {
          "indexed": false,
          "name": "amount",
          "type": "uint256"
        }
      ],
      "name": "Release",
      "type": "event"
    }
  ],
  "bytecode": "0x6060604052341561000f57600080fd5b6040516040806106b38339810160405280805190602001909190805190602001909190505060006002819055508160038190555080600481905550336000806101000a81548173ffffffffffffffffffffffffffffffffffffffff021916908373ffffffffffffffffffffffffffffffffffffffff1602179055506702c68af0bb1400006001819055505050610609806100aa6000396000f300606060405260043610610083576000357c0100000000000000000000000000000000000000000000000000000000900463ffffffff16806329dcb0cf146101b25780632e1a7d4d146101db57806337bdc99b146101fe57806352d6804d14610221578063913e77ad1461024a578063961325211461029f578063fc7e286d146102c8575b6000600560003373ffffffffffffffffffffffffffffffffffffffff1673ffffffffffffffffffffffffffffffffffffffff1681526020019081526020016000205414156101145734600560003373ffffffffffffffffffffffffffffffffffffffff1673ffffffffffffffffffffffffffffffffffffffff16815260200190815260200160002081905550610162565b34600560003373ffffffffffffffffffffffffffffffffffffffff1673ffffffffffffffffffffffffffffffffffffffff168152602001908152602001600020600082825401925050819055505b3373ffffffffffffffffffffffffffffffffffffffff167fe1fffcc4923d04b559f4d29a8bfc6cda04eb5b0d3c460751c2402c5c5cc9109c346040518082815260200191505060405180910390a2005b34156101bd57600080fd5b6101c5610315565b6040518082815260200191505060405180910390f35b34156101e657600080fd5b6101fc600480803590602001909190505061031b565b005b341561020957600080fd5b61021f6004808035906020019091905050610459565b005b341561022c57600080fd5b610234610594565b6040518082815260200191505060405180910390f35b341561025557600080fd5b61025d61059a565b604051808273ffffffffffffffffffffffffffffffffffffffff1673ffffffffffffffffffffffffffffffffffffffff16815260200191505060405180910390f35b34156102aa57600080fd5b6102b26105bf565b6040518082815260200191505060405180910390f35b34156102d357600080fd5b6102ff600480803573ffffffffffffffffffffffffffffffffffffffff169060200190919050506105c5565b6040518082815260200191505060405180910390f35b60045481565b80600560003373ffffffffffffffffffffffffffffffffffffffff1673ffffffffffffffffffffffffffffffffffffffff168152602001908152602001600020541015151561036957600080fd5b62015180600454034210151561037b57fe5b3373ffffffffffffffffffffffffffffffffffffffff166108fc60015483039081150290604051600060405180830381858888f1935050505015156104565780600560003373ffffffffffffffffffffffffffffffffffffffff1673ffffffffffffffffffffffffffffffffffffffff168152602001908152602001600020600082825403925050819055503373ffffffffffffffffffffffffffffffffffffffff167f7fcf532c15f0a6db0bd6d0e038bea71d30d808c7d98cb3bf7268a95bf5081b65826040518082815260200191505060405180910390a25b50565b6000809054906101000a900473ffffffffffffffffffffffffffffffffffffffff1673ffffffffffffffffffffffffffffffffffffffff163373ffffffffffffffffffffffffffffffffffffffff16141561059157670de0b6b3a764000081101515156104c557600080fd5b6003543073ffffffffffffffffffffffffffffffffffffffff1631101515156104ea57fe5b6201518060045403421115156104fc57fe5b6000809054906101000a900473ffffffffffffffffffffffffffffffffffffffff1673ffffffffffffffffffffffffffffffffffffffff166108fc829081150290604051600060405180830381858888f193505050501515610590577fcf95d1fe0feb1424b6916a8d99a225f598710466d34c5a755770a1d4d49311a0816040518082815260200191505060405180910390a15b5b50565b60035481565b6000809054906101000a900473ffffffffffffffffffffffffffffffffffffffff1681565b60025481565b600560205280600052604060002060009150905054815600a165627a7a72305820629c44332810c1eb1394b67d0675bab7761c7df9cf4468b128c45f8ff6ed82e90029",
  "source": "pragma solidity ^0.4.0;\n\n\ncontract Escrow {\n    enum Status {\n        OPEN, CLOSED\n    }\n\n    address public collector;\n    event Deposit(address indexed sender, uint amount);\n    event Withdrawal(address indexed sender, uint amount);\n    event Release(uint amount);\n\n    uint private withdraw_fee;\n    uint public released;\n    uint public minimum;\n    uint public deadline;\n    mapping(address => uint) public deposits;\n\n    modifier sudo {\n        if (msg.sender == collector) _;\n    }\n\n    // fallback function (accepts ether payments)\n    function() payable public{\n        if( deposits[msg.sender] == 0 ){\n            deposits[msg.sender] = msg.value;\n        } else {\n            deposits[msg.sender] += msg.value;\n        }\n        Deposit( msg.sender, msg.value );\n    }\n\n    function Escrow(uint min, uint date) public {\n        released = 0;\n        minimum = min;\n        deadline = date;\n        collector = msg.sender;\n        withdraw_fee = 200 finney;\n    }\n\n    // redeploy contract and make the initial balance of every account must be 0\n    function withdraw(uint amount) public {\n        require( deposits[msg.sender] >= amount );\n        assert( block.timestamp < deadline - 1 days );\n        if (!msg.sender.send(amount - withdraw_fee)) {\n            deposits[msg.sender] -= amount;\n            Withdrawal( msg.sender, amount );\n        }\n    }\n\n    function release(uint amount) public sudo {\n        require( amount >= 1 ether );\n        assert( this.balance >= minimum );\n        assert( block.timestamp > deadline - 1 days );\n        if (!collector.send(amount)) {\n            Release( amount );\n        }\n    }\n\n}",
  "sourcePath": "/Users/sergio/Documents/Proyectos/Workshop-Blockchain/Practice1/truffle/contracts/Escrow.sol",
  "compiler": {
    "name": "solc",
    "version": "0.4.18+commit.9cf6e910.Emscripten.clang"
  },
  "schemaVersion": "1.0.1",
  "updatedAt": "2017-11-16T22:18:57.790Z"
}